{
  "_format": "hh-sol-artifact-1",
  "contractName": "Swap",
  "sourceName": "contracts/swap.sol",
  "abi": [
    {
      "inputs": [
        {
          "internalType": "address",
          "name": "_tokenIn",
          "type": "address"
        },
        {
          "internalType": "address",
          "name": "_tokenOut",
          "type": "address"
        }
      ],
      "stateMutability": "nonpayable",
      "type": "constructor"
    },
    {
      "inputs": [
        {
          "internalType": "address",
          "name": "_tokenA",
          "type": "address"
        },
        {
          "internalType": "address",
          "name": "_tokenB",
          "type": "address"
        },
        {
          "internalType": "uint256",
          "name": "_amountA",
          "type": "uint256"
        },
        {
          "internalType": "uint256",
          "name": "_amountB",
          "type": "uint256"
        }
      ],
      "name": "addLiquidity",
      "outputs": [
        {
          "internalType": "address",
          "name": "pair",
          "type": "address"
        }
      ],
      "stateMutability": "nonpayable",
      "type": "function"
    },
    {
      "inputs": [
        {
          "internalType": "uint256",
          "name": "_amount",
          "type": "uint256"
        }
      ],
      "name": "deposit",
      "outputs": [],
      "stateMutability": "nonpayable",
      "type": "function"
    },
    {
      "inputs": [
        {
          "internalType": "address",
          "name": "depositor",
          "type": "address"
        }
      ],
      "name": "getDepositedAmount",
      "outputs": [
        {
          "internalType": "uint256",
          "name": "",
          "type": "uint256"
        }
      ],
      "stateMutability": "view",
      "type": "function"
    },
    {
      "inputs": [
        {
          "internalType": "address",
          "name": "_tokenIn",
          "type": "address"
        },
        {
          "internalType": "address",
          "name": "_tokenOut",
          "type": "address"
        },
        {
          "internalType": "uint256",
          "name": "_amountIn",
          "type": "uint256"
        }
      ],
      "name": "getOutMin",
      "outputs": [
        {
          "internalType": "uint256",
          "name": "",
          "type": "uint256"
        }
      ],
      "stateMutability": "view",
      "type": "function"
    },
    {
      "inputs": [
        {
          "internalType": "address",
          "name": "_tokenIn",
          "type": "address"
        },
        {
          "internalType": "uint256",
          "name": "_amountIn",
          "type": "uint256"
        },
        {
          "internalType": "uint256",
          "name": "_amountOutMin",
          "type": "uint256"
        },
        {
          "internalType": "address",
          "name": "_to",
          "type": "address"
        }
      ],
      "name": "swapForWEth",
      "outputs": [],
      "stateMutability": "nonpayable",
      "type": "function"
    },
    {
      "inputs": [
        {
          "internalType": "address",
          "name": "_tokenIn",
          "type": "address"
        },
        {
          "internalType": "uint256",
          "name": "_amountIn",
          "type": "uint256"
        },
        {
          "internalType": "address",
          "name": "_tokenOut",
          "type": "address"
        },
        {
          "internalType": "uint256",
          "name": "_amountOutMin",
          "type": "uint256"
        },
        {
          "internalType": "address",
          "name": "_to",
          "type": "address"
        },
        {
          "internalType": "bool",
          "name": "isFot",
          "type": "bool"
        }
      ],
      "name": "swapTokens",
      "outputs": [],
      "stateMutability": "nonpayable",
      "type": "function"
    },
    {
      "inputs": [
        {
          "internalType": "uint256",
          "name": "_amount",
          "type": "uint256"
        }
      ],
      "name": "withdraw",
      "outputs": [],
      "stateMutability": "nonpayable",
      "type": "function"
    },
    {
      "inputs": [],
      "name": "withdrawAll",
      "outputs": [],
      "stateMutability": "nonpayable",
      "type": "function"
    }
  ],
  "bytecode": "0x60c06040523480156200001157600080fd5b50604051620023f8380380620023f8833981810160405281019062000037919062000111565b8173ffffffffffffffffffffffffffffffffffffffff1660808173ffffffffffffffffffffffffffffffffffffffff16815250508073ffffffffffffffffffffffffffffffffffffffff1660a08173ffffffffffffffffffffffffffffffffffffffff1681525050505062000158565b600080fd5b600073ffffffffffffffffffffffffffffffffffffffff82169050919050565b6000620000d982620000ac565b9050919050565b620000eb81620000cc565b8114620000f757600080fd5b50565b6000815190506200010b81620000e0565b92915050565b600080604083850312156200012b576200012a620000a7565b5b60006200013b85828601620000fa565b92505060206200014e85828601620000fa565b9150509250929050565b60805160a05161226f62000189600039600050506000818161052801528181610b830152610d6e015261226f6000f3fe608060405234801561001057600080fd5b50600436106100885760003560e01c8063853828b61161005b578063853828b614610111578063b6b55f251461011b578063cf6c62ea14610137578063e9081ec71461016757610088565b80632ca3292f1461008d5780632e1a7d4d146100a95780635a7733cd146100c55780635fad83f4146100f5575b600080fd5b6100a760048036038101906100a291906117b8565b610197565b005b6100c360048036038101906100be919061181f565b610450565b005b6100df60048036038101906100da919061184c565b6105c8565b6040516100ec91906118ae565b60405180910390f35b61010f600480360381019061010a9190611901565b610782565b005b610119610abb565b005b6101356004803603810190610130919061181f565b610c60565b005b610151600480360381019061014c919061198e565b610e65565b60405161015e9190611a04565b60405180910390f35b610181600480360381019061017c9190611a1f565b611603565b60405161018e91906118ae565b60405180910390f35b8373ffffffffffffffffffffffffffffffffffffffff166323b872dd3330866040518463ffffffff1660e01b81526004016101d493929190611a4c565b6020604051808303816000875af11580156101f3573d6000803e3d6000fd5b505050506040513d601f19601f820116820180604052508101906102179190611a98565b508373ffffffffffffffffffffffffffffffffffffffff1663095ea7b3737a250d5630b4cf539739df2c5dacb4c659f2488d856040518363ffffffff1660e01b8152600401610267929190611ac5565b6020604051808303816000875af1158015610286573d6000803e3d6000fd5b505050506040513d601f19601f820116820180604052508101906102aa9190611a98565b506060600267ffffffffffffffff8111156102c8576102c7611aee565b5b6040519080825280602002602001820160405280156102f65781602001602082028036833780820191505090505b509050848160008151811061030e5761030d611b1d565b5b602002602001019073ffffffffffffffffffffffffffffffffffffffff16908173ffffffffffffffffffffffffffffffffffffffff168152505073c02aaa39b223fe8d0a0e5c4f27ead9083c756cc28160018151811061037157610370611b1d565b5b602002602001019073ffffffffffffffffffffffffffffffffffffffff16908173ffffffffffffffffffffffffffffffffffffffff1681525050737a250d5630b4cf539739df2c5dacb4c659f2488d73ffffffffffffffffffffffffffffffffffffffff166338ed173985858486426040518663ffffffff1660e01b8152600401610400959493929190611c0a565b6000604051808303816000875af115801561041f573d6000803e3d6000fd5b505050506040513d6000823e3d601f19601f820116820180604052508101906104489190611da3565b505050505050565b806000803373ffffffffffffffffffffffffffffffffffffffff1673ffffffffffffffffffffffffffffffffffffffff1681526020019081526020016000205410156104d1576040517f08c379a00000000000000000000000000000000000000000000000000000000081526004016104c890611e6f565b60405180910390fd5b806000803373ffffffffffffffffffffffffffffffffffffffff1673ffffffffffffffffffffffffffffffffffffffff168152602001908152602001600020600082825461051f9190611ebe565b925050819055507f000000000000000000000000000000000000000000000000000000000000000073ffffffffffffffffffffffffffffffffffffffff1663a9059cbb33836040518363ffffffff1660e01b8152600401610581929190611ac5565b6020604051808303816000875af11580156105a0573d6000803e3d6000fd5b505050506040513d601f19601f820116820180604052508101906105c49190611a98565b5050565b60006060600267ffffffffffffffff8111156105e7576105e6611aee565b5b6040519080825280602002602001820160405280156106155781602001602082028036833780820191505090505b509050848160008151811061062d5761062c611b1d565b5b602002602001019073ffffffffffffffffffffffffffffffffffffffff16908173ffffffffffffffffffffffffffffffffffffffff1681525050838160018151811061067c5761067b611b1d565b5b602002602001019073ffffffffffffffffffffffffffffffffffffffff16908173ffffffffffffffffffffffffffffffffffffffff16815250506000737a250d5630b4cf539739df2c5dacb4c659f2488d73ffffffffffffffffffffffffffffffffffffffff1663d06ca61f85846040518363ffffffff1660e01b8152600401610707929190611ef2565b600060405180830381865afa158015610724573d6000803e3d6000fd5b505050506040513d6000823e3d601f19601f8201168201806040525081019061074d9190611da3565b9050806001835161075e9190611ebe565b8151811061076f5761076e611b1d565b5b6020026020010151925050509392505050565b8573ffffffffffffffffffffffffffffffffffffffff166323b872dd3330886040518463ffffffff1660e01b81526004016107bf93929190611a4c565b6020604051808303816000875af11580156107de573d6000803e3d6000fd5b505050506040513d601f19601f820116820180604052508101906108029190611a98565b508573ffffffffffffffffffffffffffffffffffffffff1663095ea7b3737a250d5630b4cf539739df2c5dacb4c659f2488d876040518363ffffffff1660e01b8152600401610852929190611ac5565b6020604051808303816000875af1158015610871573d6000803e3d6000fd5b505050506040513d601f19601f820116820180604052508101906108959190611a98565b506060600267ffffffffffffffff8111156108b3576108b2611aee565b5b6040519080825280602002602001820160405280156108e15781602001602082028036833780820191505090505b50905086816000815181106108f9576108f8611b1d565b5b602002602001019073ffffffffffffffffffffffffffffffffffffffff16908173ffffffffffffffffffffffffffffffffffffffff1681525050848160018151811061094857610947611b1d565b5b602002602001019073ffffffffffffffffffffffffffffffffffffffff16908173ffffffffffffffffffffffffffffffffffffffff168152505081610a2a57737a250d5630b4cf539739df2c5dacb4c659f2488d73ffffffffffffffffffffffffffffffffffffffff166338ed173987868487426040518663ffffffff1660e01b81526004016109dc959493929190611c0a565b6000604051808303816000875af11580156109fb573d6000803e3d6000fd5b505050506040513d6000823e3d601f19601f82011682018060405250810190610a249190611da3565b50610ab2565b737a250d5630b4cf539739df2c5dacb4c659f2488d73ffffffffffffffffffffffffffffffffffffffff16635c11d79587868487426040518663ffffffff1660e01b8152600401610a7f959493929190611c0a565b600060405180830381600087803b158015610a9957600080fd5b505af1158015610aad573d6000803e3d6000fd5b505050505b50505050505050565b60008060003373ffffffffffffffffffffffffffffffffffffffff1673ffffffffffffffffffffffffffffffffffffffff168152602001908152602001600020541015610b3d576040517f08c379a0000000000000000000000000000000000000000000000000000000008152600401610b3490611f6e565b60405180910390fd5b60008060003373ffffffffffffffffffffffffffffffffffffffff1673ffffffffffffffffffffffffffffffffffffffff168152602001908152602001600020819055507f000000000000000000000000000000000000000000000000000000000000000073ffffffffffffffffffffffffffffffffffffffff1663a9059cbb336000803373ffffffffffffffffffffffffffffffffffffffff1673ffffffffffffffffffffffffffffffffffffffff168152602001908152602001600020546040518363ffffffff1660e01b8152600401610c1a929190611ac5565b6020604051808303816000875af1158015610c39573d6000803e3d6000fd5b505050506040513d601f19601f82011682018060405250810190610c5d9190611a98565b50565b600160003373ffffffffffffffffffffffffffffffffffffffff1673ffffffffffffffffffffffffffffffffffffffff16815260200190815260200160002060009054906101000a900460ff16610d6c5760018060003373ffffffffffffffffffffffffffffffffffffffff1673ffffffffffffffffffffffffffffffffffffffff16815260200190815260200160002060006101000a81548160ff0219169083151502179055506002339080600181540180825580915050600190039060005260206000200160009091909190916101000a81548173ffffffffffffffffffffffffffffffffffffffff021916908373ffffffffffffffffffffffffffffffffffffffff1602179055505b7f000000000000000000000000000000000000000000000000000000000000000073ffffffffffffffffffffffffffffffffffffffff166323b872dd3330846040518463ffffffff1660e01b8152600401610dc993929190611a4c565b6020604051808303816000875af1158015610de8573d6000803e3d6000fd5b505050506040513d601f19601f82011682018060405250810190610e0c9190611a98565b50806000803373ffffffffffffffffffffffffffffffffffffffff1673ffffffffffffffffffffffffffffffffffffffff1681526020019081526020016000206000828254610e5b9190611f8e565b9250508190555050565b6000735c69bee701ef814a2b6a3edd4b1652cb9cc5aa6f73ffffffffffffffffffffffffffffffffffffffff1663e6a4390586866040518363ffffffff1660e01b8152600401610eb6929190611fe4565b602060405180830381865afa158015610ed3573d6000803e3d6000fd5b505050506040513d601f19601f82011682018060405250810190610ef79190612022565b9050600073ffffffffffffffffffffffffffffffffffffffff168173ffffffffffffffffffffffffffffffffffffffff161415610fc257735c69bee701ef814a2b6a3edd4b1652cb9cc5aa6f73ffffffffffffffffffffffffffffffffffffffff1663c9c6539686866040518363ffffffff1660e01b8152600401610f7d929190611fe4565b6020604051808303816000875af1158015610f9c573d6000803e3d6000fd5b505050506040513d601f19601f82011682018060405250810190610fc09190612022565b505b8473ffffffffffffffffffffffffffffffffffffffff166323b872dd3330866040518463ffffffff1660e01b8152600401610fff93929190611a4c565b6020604051808303816000875af115801561101e573d6000803e3d6000fd5b505050506040513d601f19601f820116820180604052508101906110429190611a98565b508373ffffffffffffffffffffffffffffffffffffffff166323b872dd3330856040518463ffffffff1660e01b815260040161108093929190611a4c565b6020604051808303816000875af115801561109f573d6000803e3d6000fd5b505050506040513d601f19601f820116820180604052508101906110c39190611a98565b508473ffffffffffffffffffffffffffffffffffffffff1663095ea7b3737a250d5630b4cf539739df2c5dacb4c659f2488d856040518363ffffffff1660e01b8152600401611113929190611ac5565b6020604051808303816000875af1158015611132573d6000803e3d6000fd5b505050506040513d601f19601f820116820180604052508101906111569190611a98565b508373ffffffffffffffffffffffffffffffffffffffff1663095ea7b3737a250d5630b4cf539739df2c5dacb4c659f2488d846040518363ffffffff1660e01b81526004016111a6929190611ac5565b6020604051808303816000875af11580156111c5573d6000803e3d6000fd5b505050506040513d601f19601f820116820180604052508101906111e99190611a98565b506000806000737a250d5630b4cf539739df2c5dacb4c659f2488d73ffffffffffffffffffffffffffffffffffffffff1663e8e337008989898960018030426040518963ffffffff1660e01b815260040161124b989796959493929190612094565b6060604051808303816000875af115801561126a573d6000803e3d6000fd5b505050506040513d601f19601f8201168201806040525081019061128e9190612112565b92509250925061134c6040518060400160405280600e81526020017f41465445522c20746f6b656e41200000000000000000000000000000000000008152508973ffffffffffffffffffffffffffffffffffffffff166370a08231306040518263ffffffff1660e01b81526004016113069190611a04565b602060405180830381865afa158015611323573d6000803e3d6000fd5b505050506040513d601f19601f820116820180604052508101906113479190612165565b61164b565b6114046040518060400160405280600e81526020017f41465445522c20746f6b656e42200000000000000000000000000000000000008152508873ffffffffffffffffffffffffffffffffffffffff166370a08231306040518263ffffffff1660e01b81526004016113be9190611a04565b602060405180830381865afa1580156113db573d6000803e3d6000fd5b505050506040513d601f19601f820116820180604052508101906113ff9190612165565b61164b565b8673ffffffffffffffffffffffffffffffffffffffff166323b872dd30338a73ffffffffffffffffffffffffffffffffffffffff166370a08231306040518263ffffffff1660e01b815260040161145b9190611a04565b602060405180830381865afa158015611478573d6000803e3d6000fd5b505050506040513d601f19601f8201168201806040525081019061149c9190612165565b6040518463ffffffff1660e01b81526004016114ba93929190611a4c565b6020604051808303816000875af11580156114d9573d6000803e3d6000fd5b505050506040513d601f19601f820116820180604052508101906114fd9190611a98565b508773ffffffffffffffffffffffffffffffffffffffff166323b872dd30338b73ffffffffffffffffffffffffffffffffffffffff166370a08231306040518263ffffffff1660e01b81526004016115559190611a04565b602060405180830381865afa158015611572573d6000803e3d6000fd5b505050506040513d601f19601f820116820180604052508101906115969190612165565b6040518463ffffffff1660e01b81526004016115b493929190611a4c565b6020604051808303816000875af11580156115d3573d6000803e3d6000fd5b505050506040513d601f19601f820116820180604052508101906115f79190611a98565b50505050949350505050565b60008060008373ffffffffffffffffffffffffffffffffffffffff1673ffffffffffffffffffffffffffffffffffffffff168152602001908152602001600020549050919050565b6116e38282604051602401611661929190612209565b6040516020818303038152906040527fb60e72cc000000000000000000000000000000000000000000000000000000007bffffffffffffffffffffffffffffffffffffffffffffffffffffffff19166020820180517bffffffffffffffffffffffffffffffffffffffffffffffffffffffff83818316178352505050506116e7565b5050565b60008151905060006a636f6e736f6c652e6c6f679050602083016000808483855afa5050505050565b6000604051905090565b600080fd5b600080fd5b600073ffffffffffffffffffffffffffffffffffffffff82169050919050565b600061174f82611724565b9050919050565b61175f81611744565b811461176a57600080fd5b50565b60008135905061177c81611756565b92915050565b6000819050919050565b61179581611782565b81146117a057600080fd5b50565b6000813590506117b28161178c565b92915050565b600080600080608085870312156117d2576117d161171a565b5b60006117e08782880161176d565b94505060206117f1878288016117a3565b9350506040611802878288016117a3565b92505060606118138782880161176d565b91505092959194509250565b6000602082840312156118355761183461171a565b5b6000611843848285016117a3565b91505092915050565b6000806000606084860312156118655761186461171a565b5b60006118738682870161176d565b93505060206118848682870161176d565b9250506040611895868287016117a3565b9150509250925092565b6118a881611782565b82525050565b60006020820190506118c3600083018461189f565b92915050565b60008115159050919050565b6118de816118c9565b81146118e957600080fd5b50565b6000813590506118fb816118d5565b92915050565b60008060008060008060c0878903121561191e5761191d61171a565b5b600061192c89828a0161176d565b965050602061193d89828a016117a3565b955050604061194e89828a0161176d565b945050606061195f89828a016117a3565b935050608061197089828a0161176d565b92505060a061198189828a016118ec565b9150509295509295509295565b600080600080608085870312156119a8576119a761171a565b5b60006119b68782880161176d565b94505060206119c78782880161176d565b93505060406119d8878288016117a3565b92505060606119e9878288016117a3565b91505092959194509250565b6119fe81611744565b82525050565b6000602082019050611a1960008301846119f5565b92915050565b600060208284031215611a3557611a3461171a565b5b6000611a438482850161176d565b91505092915050565b6000606082019050611a6160008301866119f5565b611a6e60208301856119f5565b611a7b604083018461189f565b949350505050565b600081519050611a92816118d5565b92915050565b600060208284031215611aae57611aad61171a565b5b6000611abc84828501611a83565b91505092915050565b6000604082019050611ada60008301856119f5565b611ae7602083018461189f565b9392505050565b7f4e487b7100000000000000000000000000000000000000000000000000000000600052604160045260246000fd5b7f4e487b7100000000000000000000000000000000000000000000000000000000600052603260045260246000fd5b600081519050919050565b600082825260208201905092915050565b6000819050602082019050919050565b611b8181611744565b82525050565b6000611b938383611b78565b60208301905092915050565b6000602082019050919050565b6000611bb782611b4c565b611bc18185611b57565b9350611bcc83611b68565b8060005b83811015611bfd578151611be48882611b87565b9750611bef83611b9f565b925050600181019050611bd0565b5085935050505092915050565b600060a082019050611c1f600083018861189f565b611c2c602083018761189f565b8181036040830152611c3e8186611bac565b9050611c4d60608301856119f5565b611c5a608083018461189f565b9695505050505050565b600080fd5b6000601f19601f8301169050919050565b611c8382611c69565b810181811067ffffffffffffffff82111715611ca257611ca1611aee565b5b80604052505050565b6000611cb5611710565b9050611cc18282611c7a565b919050565b600067ffffffffffffffff821115611ce157611ce0611aee565b5b602082029050602081019050919050565b600080fd5b600081519050611d068161178c565b92915050565b6000611d1f611d1a84611cc6565b611cab565b90508083825260208201905060208402830185811115611d4257611d41611cf2565b5b835b81811015611d6b5780611d578882611cf7565b845260208401935050602081019050611d44565b5050509392505050565b600082601f830112611d8a57611d89611c64565b5b8151611d9a848260208601611d0c565b91505092915050565b600060208284031215611db957611db861171a565b5b600082015167ffffffffffffffff811115611dd757611dd661171f565b5b611de384828501611d75565b91505092915050565b600082825260208201905092915050565b7f5f616d6f756e742065786365646573206465706f736974206f662073656e646560008201527f7200000000000000000000000000000000000000000000000000000000000000602082015250565b6000611e59602183611dec565b9150611e6482611dfd565b604082019050919050565b60006020820190508181036000830152611e8881611e4c565b9050919050565b7f4e487b7100000000000000000000000000000000000000000000000000000000600052601160045260246000fd5b6000611ec982611782565b9150611ed483611782565b925082821015611ee757611ee6611e8f565b5b828203905092915050565b6000604082019050611f07600083018561189f565b8181036020830152611f198184611bac565b90509392505050565b7f7769746864726177203000000000000000000000000000000000000000000000600082015250565b6000611f58600a83611dec565b9150611f6382611f22565b602082019050919050565b60006020820190508181036000830152611f8781611f4b565b9050919050565b6000611f9982611782565b9150611fa483611782565b9250827fffffffffffffffffffffffffffffffffffffffffffffffffffffffffffffffff03821115611fd957611fd8611e8f565b5b828201905092915050565b6000604082019050611ff960008301856119f5565b61200660208301846119f5565b9392505050565b60008151905061201c81611756565b92915050565b6000602082840312156120385761203761171a565b5b60006120468482850161200d565b91505092915050565b6000819050919050565b6000819050919050565b600061207e6120796120748461204f565b612059565b611782565b9050919050565b61208e81612063565b82525050565b6000610100820190506120aa600083018b6119f5565b6120b7602083018a6119f5565b6120c4604083018961189f565b6120d1606083018861189f565b6120de6080830187612085565b6120eb60a0830186612085565b6120f860c08301856119f5565b61210560e083018461189f565b9998505050505050505050565b60008060006060848603121561212b5761212a61171a565b5b600061213986828701611cf7565b935050602061214a86828701611cf7565b925050604061215b86828701611cf7565b9150509250925092565b60006020828403121561217b5761217a61171a565b5b600061218984828501611cf7565b91505092915050565b600081519050919050565b60005b838110156121bb5780820151818401526020810190506121a0565b838111156121ca576000848401525b50505050565b60006121db82612192565b6121e58185611dec565b93506121f581856020860161219d565b6121fe81611c69565b840191505092915050565b6000604082019050818103600083015261222381856121d0565b9050612232602083018461189f565b939250505056fea26469706673582212203f631ddd5620cb02598bd9d5bba1425e4ddd9bf6f000180485bb48e6a5ec732d64736f6c634300080a0033",
  "linkReferences": {},
  "deployedLinkReferences": {}
}